{
  "_format": "hh-sol-artifact-1",
  "contractName": "CrossChainSwap",
  "sourceName": "contracts/CCS.sol",
  "abi": [
    {
      "inputs": [],
      "stateMutability": "nonpayable",
      "type": "constructor"
    },
    {
      "anonymous": false,
      "inputs": [
        {
          "indexed": true,
          "internalType": "address",
          "name": "owner",
          "type": "address"
        },
        {
          "indexed": true,
          "internalType": "address",
          "name": "spender",
          "type": "address"
        },
        {
          "indexed": false,
          "internalType": "uint256",
          "name": "value",
          "type": "uint256"
        }
      ],
      "name": "Approval",
      "type": "event"
    },
    {
      "anonymous": false,
      "inputs": [
        {
          "indexed": true,
          "internalType": "address",
          "name": "previousOwner",
          "type": "address"
        },
        {
          "indexed": true,
          "internalType": "address",
          "name": "newOwner",
          "type": "address"
        }
      ],
      "name": "OwnershipTransferred",
      "type": "event"
    },
    {
      "anonymous": false,
      "inputs": [
        {
          "indexed": true,
          "internalType": "address",
          "name": "from",
          "type": "address"
        },
        {
          "indexed": true,
          "internalType": "address",
          "name": "to",
          "type": "address"
        },
        {
          "indexed": false,
          "internalType": "uint256",
          "name": "value",
          "type": "uint256"
        }
      ],
      "name": "Transfer",
      "type": "event"
    },
    {
      "inputs": [
        {
          "internalType": "bytes",
          "name": "encodedVM",
          "type": "bytes"
        },
        {
          "internalType": "uint24",
          "name": "poolFee",
          "type": "uint24"
        }
      ],
      "name": "CCSwapEnd",
      "outputs": [
        {
          "internalType": "uint256",
          "name": "amountRecieved",
          "type": "uint256"
        }
      ],
      "stateMutability": "nonpayable",
      "type": "function"
    },
    {
      "inputs": [
        {
          "internalType": "address",
          "name": "tokenIn",
          "type": "address"
        },
        {
          "internalType": "address",
          "name": "tokenOut",
          "type": "address"
        },
        {
          "internalType": "uint24",
          "name": "poolFee",
          "type": "uint24"
        },
        {
          "internalType": "uint256",
          "name": "amountIn",
          "type": "uint256"
        }
      ],
      "name": "CCSwapStart",
      "outputs": [
        {
          "internalType": "uint64",
          "name": "sequence",
          "type": "uint64"
        }
      ],
      "stateMutability": "nonpayable",
      "type": "function"
    },
    {
      "inputs": [
        {
          "internalType": "address",
          "name": "owner",
          "type": "address"
        },
        {
          "internalType": "address",
          "name": "spender",
          "type": "address"
        }
      ],
      "name": "allowance",
      "outputs": [
        {
          "internalType": "uint256",
          "name": "",
          "type": "uint256"
        }
      ],
      "stateMutability": "view",
      "type": "function"
    },
    {
      "inputs": [
        {
          "internalType": "address",
          "name": "spender",
          "type": "address"
        },
        {
          "internalType": "uint256",
          "name": "amount",
          "type": "uint256"
        }
      ],
      "name": "approve",
      "outputs": [
        {
          "internalType": "bool",
          "name": "",
          "type": "bool"
        }
      ],
      "stateMutability": "nonpayable",
      "type": "function"
    },
    {
      "inputs": [
        {
          "internalType": "address",
          "name": "account",
          "type": "address"
        }
      ],
      "name": "balanceOf",
      "outputs": [
        {
          "internalType": "uint256",
          "name": "",
          "type": "uint256"
        }
      ],
      "stateMutability": "view",
      "type": "function"
    },
    {
      "inputs": [
        {
          "internalType": "uint256",
          "name": "amount",
          "type": "uint256"
        }
      ],
      "name": "burn",
      "outputs": [],
      "stateMutability": "nonpayable",
      "type": "function"
    },
    {
      "inputs": [
        {
          "internalType": "address",
          "name": "account",
          "type": "address"
        },
        {
          "internalType": "uint256",
          "name": "amount",
          "type": "uint256"
        }
      ],
      "name": "burnFrom",
      "outputs": [],
      "stateMutability": "nonpayable",
      "type": "function"
    },
    {
      "inputs": [
        {
          "internalType": "uint256",
          "name": "amount",
          "type": "uint256"
        }
      ],
      "name": "burn_for_withdrawal",
      "outputs": [],
      "stateMutability": "nonpayable",
      "type": "function"
    },
    {
      "inputs": [
        {
          "internalType": "uint256",
          "name": "amount",
          "type": "uint256"
        },
        {
          "internalType": "uint256",
          "name": "baseBalance",
          "type": "uint256"
        },
        {
          "internalType": "uint256",
          "name": "destBalance",
          "type": "uint256"
        }
      ],
      "name": "calculateFinalAmount",
      "outputs": [
        {
          "internalType": "uint256",
          "name": "",
          "type": "uint256"
        }
      ],
      "stateMutability": "view",
      "type": "function"
    },
    {
      "inputs": [],
      "name": "decimals",
      "outputs": [
        {
          "internalType": "uint8",
          "name": "",
          "type": "uint8"
        }
      ],
      "stateMutability": "view",
      "type": "function"
    },
    {
      "inputs": [
        {
          "internalType": "address",
          "name": "spender",
          "type": "address"
        },
        {
          "internalType": "uint256",
          "name": "subtractedValue",
          "type": "uint256"
        }
      ],
      "name": "decreaseAllowance",
      "outputs": [
        {
          "internalType": "bool",
          "name": "",
          "type": "bool"
        }
      ],
      "stateMutability": "nonpayable",
      "type": "function"
    },
    {
      "inputs": [],
      "name": "get_base_token",
      "outputs": [
        {
          "internalType": "address",
          "name": "",
          "type": "address"
        }
      ],
      "stateMutability": "view",
      "type": "function"
    },
    {
      "inputs": [],
      "name": "getbaseFee",
      "outputs": [
        {
          "internalType": "uint24",
          "name": "",
          "type": "uint24"
        }
      ],
      "stateMutability": "view",
      "type": "function"
    },
    {
      "inputs": [],
      "name": "getcutOffRatio",
      "outputs": [
        {
          "internalType": "uint24",
          "name": "",
          "type": "uint24"
        }
      ],
      "stateMutability": "view",
      "type": "function"
    },
    {
      "inputs": [
        {
          "internalType": "address",
          "name": "spender",
          "type": "address"
        },
        {
          "internalType": "uint256",
          "name": "addedValue",
          "type": "uint256"
        }
      ],
      "name": "increaseAllowance",
      "outputs": [
        {
          "internalType": "bool",
          "name": "",
          "type": "bool"
        }
      ],
      "stateMutability": "nonpayable",
      "type": "function"
    },
    {
      "inputs": [
        {
          "internalType": "uint256",
          "name": "amount",
          "type": "uint256"
        }
      ],
      "name": "mint_for_deposit",
      "outputs": [],
      "stateMutability": "nonpayable",
      "type": "function"
    },
    {
      "inputs": [],
      "name": "name",
      "outputs": [
        {
          "internalType": "string",
          "name": "",
          "type": "string"
        }
      ],
      "stateMutability": "view",
      "type": "function"
    },
    {
      "inputs": [],
      "name": "owner",
      "outputs": [
        {
          "internalType": "address",
          "name": "",
          "type": "address"
        }
      ],
      "stateMutability": "view",
      "type": "function"
    },
    {
      "inputs": [],
      "name": "renounceOwnership",
      "outputs": [],
      "stateMutability": "nonpayable",
      "type": "function"
    },
    {
      "inputs": [
        {
          "internalType": "address",
          "name": "new_base_token",
          "type": "address"
        }
      ],
      "name": "set_base_token",
      "outputs": [],
      "stateMutability": "nonpayable",
      "type": "function"
    },
    {
      "inputs": [
        {
          "internalType": "uint24",
          "name": "_baseFee",
          "type": "uint24"
        }
      ],
      "name": "setbaseFee",
      "outputs": [],
      "stateMutability": "nonpayable",
      "type": "function"
    },
    {
      "inputs": [
        {
          "internalType": "uint24",
          "name": "_baseFee",
          "type": "uint24"
        }
      ],
      "name": "setcutOffRatio",
      "outputs": [],
      "stateMutability": "nonpayable",
      "type": "function"
    },
    {
      "inputs": [
        {
          "internalType": "address",
          "name": "tokenIn",
          "type": "address"
        },
        {
          "internalType": "address",
          "name": "tokenOut",
          "type": "address"
        },
        {
          "internalType": "uint24",
          "name": "poolFee",
          "type": "uint24"
        },
        {
          "internalType": "uint256",
          "name": "amountIn",
          "type": "uint256"
        }
      ],
      "name": "swapIn",
      "outputs": [
        {
          "internalType": "uint256",
          "name": "amountOut",
          "type": "uint256"
        }
      ],
      "stateMutability": "nonpayable",
      "type": "function"
    },
    {
      "inputs": [
        {
          "internalType": "address",
          "name": "tokenIn",
          "type": "address"
        },
        {
          "internalType": "address",
          "name": "tokenOut",
          "type": "address"
        },
        {
          "internalType": "uint24",
          "name": "poolFee",
          "type": "uint24"
        },
        {
          "internalType": "uint256",
          "name": "amountIn",
          "type": "uint256"
        },
        {
          "internalType": "address",
          "name": "recipient",
          "type": "address"
        }
      ],
      "name": "swapOut",
      "outputs": [
        {
          "internalType": "uint256",
          "name": "amountOut",
          "type": "uint256"
        }
      ],
      "stateMutability": "nonpayable",
      "type": "function"
    },
    {
      "inputs": [],
      "name": "symbol",
      "outputs": [
        {
          "internalType": "string",
          "name": "",
          "type": "string"
        }
      ],
      "stateMutability": "view",
      "type": "function"
    },
    {
      "inputs": [],
      "name": "totalSupply",
      "outputs": [
        {
          "internalType": "uint256",
          "name": "",
          "type": "uint256"
        }
      ],
      "stateMutability": "view",
      "type": "function"
    },
    {
      "inputs": [
        {
          "internalType": "address",
          "name": "to",
          "type": "address"
        },
        {
          "internalType": "uint256",
          "name": "amount",
          "type": "uint256"
        }
      ],
      "name": "transfer",
      "outputs": [
        {
          "internalType": "bool",
          "name": "",
          "type": "bool"
        }
      ],
      "stateMutability": "nonpayable",
      "type": "function"
    },
    {
      "inputs": [
        {
          "internalType": "address",
          "name": "from",
          "type": "address"
        },
        {
          "internalType": "address",
          "name": "to",
          "type": "address"
        },
        {
          "internalType": "uint256",
          "name": "amount",
          "type": "uint256"
        }
      ],
      "name": "transferFrom",
      "outputs": [
        {
          "internalType": "bool",
          "name": "",
          "type": "bool"
        }
      ],
      "stateMutability": "nonpayable",
      "type": "function"
    },
    {
      "inputs": [
        {
          "internalType": "address",
          "name": "newOwner",
          "type": "address"
        }
      ],
      "name": "transferOwnership",
      "outputs": [],
      "stateMutability": "nonpayable",
      "type": "function"
    },
    {
      "inputs": [],
      "name": "wormhole",
      "outputs": [
        {
          "internalType": "contract IWormhole",
          "name": "",
          "type": "address"
        }
      ],
      "stateMutability": "view",
      "type": "function"
    }
  ],
  "bytecode": "0x60806040526005805463ffffffff60a01b19169055600680546001600160d01b03191677320001f4a6fa4fb5f76172d178d61b04b0ecd319c5d1c0aa17905560078054730cbe91cf822c73c2315fb05100c2f714765d5c206001600160a01b031991821681179092556008805490911690911790553480156200008157600080fd5b50604080518082018252601081526f10d85cdd1b1a5b99c811195c1bdcda5d60821b60208083019182528351808501909452600484526310d054d560e21b908401528151919291620000d69160039162000165565b508051620000ec90600490602084019062000165565b50505062000109620001036200010f60201b60201c565b62000113565b62000248565b3390565b600580546001600160a01b038381166001600160a01b0319831681179093556040519116919082907f8be0079c531659141344cd1fd0a4f28419497f9722a3daafe3b4186f6b6457e090600090a35050565b82805462000173906200020b565b90600052602060002090601f016020900481019282620001975760008555620001e2565b82601f10620001b257805160ff1916838001178555620001e2565b82800160010185558215620001e2579182015b82811115620001e2578251825591602001919060010190620001c5565b50620001f0929150620001f4565b5090565b5b80821115620001f05760008155600101620001f5565b600181811c908216806200022057607f821691505b602082108114156200024257634e487b7160e01b600052602260045260246000fd5b50919050565b61204280620002586000396000f3fe608060405234801561001057600080fd5b50600436106101da5760003560e01c8063715018a611610104578063a457c2d7116100a2578063c3f2c1eb11610071578063c3f2c1eb146103f6578063c877ecca14610409578063dd62ed3e1461041c578063f2fde38b1461042f57600080fd5b8063a457c2d7146103bd578063a9059cbb146103d0578063b2e7e14014610370578063b7b9da5b146103e357600080fd5b80637f00c317116100de5780637f00c3171461037057806384acd1bb146103935780638da5cb5b146103a457806395d89b41146103b557600080fd5b8063715018a61461032957806375bcf6981461033157806379cc67901461035d57600080fd5b806323b872dd1161017c57806346d957031161014b57806346d957031461024757806355b7138d146102da5780636e22ee2a146102ed57806370a082311461030057600080fd5b806323b872dd14610292578063313ce567146102a557806339509351146102b457806342966c68146102c757600080fd5b806318160ddd116101b857806318160ddd146102355780631b162b69146102475780631be8f4d91461025a57806320ed5e9a1461026d57600080fd5b806306fdde03146101df5780630919ad11146101fd578063095ea7b314610212575b600080fd5b6101e7610442565b6040516101f491906117bd565b60405180910390f35b61021061020b3660046117d0565b6104d4565b005b6102256102203660046117fe565b61066f565b60405190151581526020016101f4565b6002545b6040519081526020016101f4565b610210610255366004611842565b610687565b61023961026836600461185d565b6106b3565b6006546001600160a01b03165b6040516001600160a01b0390911681526020016101f4565b6102256102a03660046118c3565b61082a565b604051601281526020016101f4565b6102256102c23660046117fe565b610850565b6102106102d53660046117d0565b610662565b6102396102e8366004611904565b610872565b6102106102fb366004611985565b6109d6565b61023961030e366004611985565b6001600160a01b031660009081526020819052604090205490565b610210610a00565b61034461033f3660046119a2565b610a14565b60405167ffffffffffffffff90911681526020016101f4565b61021061036b3660046117fe565b610ac7565b600654600160b81b900462ffffff1660405162ffffff90911681526020016101f4565b6008546001600160a01b031661027a565b6005546001600160a01b031661027a565b6101e7610ae0565b6102256103cb3660046117fe565b610aef565b6102256103de3660046117fe565b610b7a565b6102106103f13660046117d0565b610b88565b6102396104043660046119f1565b610cb1565b6102396104173660046119a2565b610ded565b61023961042a366004611a1d565b610fde565b61021061043d366004611985565b611009565b60606003805461045190611a56565b80601f016020809104026020016040519081016040528092919081815260200182805461047d90611a56565b80156104ca5780601f1061049f576101008083540402835291602001916104ca565b820191906000526020600020905b8154815290600101906020018083116104ad57829003601f168201915b5050505050905090565b6040516370a0823160e01b8152336004820152819030906370a082319060240160206040518083038186803b15801561050c57600080fd5b505afa158015610520573d6000803e3d6000fd5b505050506040513d601f19601f820116820180604052508101906105449190611a91565b101561054f57600080fd5b6006546040516370a0823160e01b815230600482015282916001600160a01b0316906370a082319060240160206040518083038186803b15801561059257600080fd5b505afa1580156105a6573d6000803e3d6000fd5b505050506040513d601f19601f820116820180604052508101906105ca9190611a91565b10156105d557600080fd5b60065460405163a9059cbb60e01b8152336004820152602481018390526001600160a01b039091169063a9059cbb90604401602060405180830381600087803b15801561062157600080fd5b505af1158015610635573d6000803e3d6000fd5b505050506040513d601f19601f820116820180604052508101906106599190611aaa565b61066257600080fd5b61066c338261107f565b50565b60003361067d8185856111b2565b5060019392505050565b61068f6112ce565b6006805462ffffff909216600160b81b0262ffffff60b81b19909216919091179055565b60405163095ea7b360e01b815273e592427a0aece92de3edee1f18e0157c058615646004820152602481018390526000906001600160a01b0387169063095ea7b390604401602060405180830381600087803b15801561071257600080fd5b505af1158015610726573d6000803e3d6000fd5b505050506040513d601f19601f8201168201806040525081019061074a9190611aaa565b5060408051610100810182526001600160a01b038089168252878116602083015262ffffff8716828401528416606082015242608082015260a08101859052600060c0820181905260e0820152905163414bf38960e01b815273e592427a0aece92de3edee1f18e0157c058615649063414bf389906107cd908490600401611acc565b602060405180830381600087803b1580156107e757600080fd5b505af11580156107fb573d6000803e3d6000fd5b505050506040513d601f19601f8201168201806040525081019061081f9190611a91565b979650505050505050565b600033610838858285611328565b6108438585856113a2565b60019150505b9392505050565b60003361067d8185856108638383610fde565b61086d9190611b4b565b6111b2565b60085460405163a9e1189360e01b815260009182916001600160a01b039091169063a9e11893906108a99088908890600401611b63565b60006040518083038186803b1580156108c157600080fd5b505afa1580156108d5573d6000803e3d6000fd5b505050506040513d6000823e601f3d908101601f191682016040526108fd9190810190611da7565b90506000806000808460e0015180602001905181019061091d9190611ecc565b6006546040516370a0823160e01b815230600482015294985092965090945092506000916109ac91869185916001600160a01b0316906370a082319060240160206040518083038186803b15801561097457600080fd5b505afa158015610988573d6000803e3d6000fd5b505050506040513d601f19601f820116820180604052508101906104049190611a91565b6006549091506109c8906001600160a01b0316848a84896106b3565b9a9950505050505050505050565b6109de6112ce565b600680546001600160a01b0319166001600160a01b0392909216919091179055565b610a086112ce565b610a126000611546565b565b6006546000908190610a329087906001600160a01b03168686610ded565b6006546040516370a0823160e01b8152306004820152919250610abd913391889185916001600160a01b0316906370a082319060240160206040518083038186803b158015610a8057600080fd5b505afa158015610a94573d6000803e3d6000fd5b505050506040513d601f19601f82011682018060405250810190610ab89190611a91565b611598565b9695505050505050565b610ad2823383611328565b610adc828261107f565b5050565b60606004805461045190611a56565b60003381610afd8286610fde565b905083811015610b625760405162461bcd60e51b815260206004820152602560248201527f45524332303a2064656372656173656420616c6c6f77616e63652062656c6f77604482015264207a65726f60d81b60648201526084015b60405180910390fd5b610b6f82868684036111b2565b506001949350505050565b60003361067d8185856113a2565b600654604051636eb1769f60e11b815233600482015230602482015282916001600160a01b03169063dd62ed3e9060440160206040518083038186803b158015610bd157600080fd5b505afa158015610be5573d6000803e3d6000fd5b505050506040513d601f19601f82011682018060405250810190610c099190611a91565b1015610c1457600080fd5b6006546040516323b872dd60e01b8152336004820152306024820152604481018390526001600160a01b03909116906323b872dd90606401602060405180830381600087803b158015610c6657600080fd5b505af1158015610c7a573d6000803e3d6000fd5b505050506040513d601f19601f82011682018060405250810190610c9e9190611aaa565b610ca757600080fd5b61066c33826116a6565b600080610cbe8484611b4b565b610cca856103e8611f15565b610cd49190611f4a565b600654909150610cf290600290600160a01b900462ffffff16611f5e565b62ffffff16811115610d76576006546305f5e100906103e890600160a01b900462ffffff16610d23846107d0611f15565b610d2d9190611f4a565b610d379190611f80565b600654610d5090600160b81b900462ffffff1688611f15565b610d5a9190611f15565b610d649190611f4a565b610d6e9086611f80565b915050610849565b6006546305f5e10090600160a01b900462ffffff16610d97836107d0611f15565b610da19190611f4a565b610dad906103e8611f80565b600654610dc690600160b81b900462ffffff1688611f15565b610dd09190611f15565b610dda9190611f4a565b610de49086611b4b565b95945050505050565b6040516323b872dd60e01b8152336004820152306024820152604481018290526000906001600160a01b038616906323b872dd90606401602060405180830381600087803b158015610e3e57600080fd5b505af1158015610e52573d6000803e3d6000fd5b505050506040513d601f19601f82011682018060405250810190610e769190611aaa565b5060405163095ea7b360e01b815273e592427a0aece92de3edee1f18e0157c058615646004820152602481018390526001600160a01b0386169063095ea7b390604401602060405180830381600087803b158015610ed357600080fd5b505af1158015610ee7573d6000803e3d6000fd5b505050506040513d601f19601f82011682018060405250810190610f0b9190611aaa565b5060408051610100810182526001600160a01b0380881682528616602082015262ffffff85168183015233606082015242608082015260a08101849052600060c0820181905260e0820152905163414bf38960e01b815273e592427a0aece92de3edee1f18e0157c058615649063414bf38990610f8c908490600401611acc565b602060405180830381600087803b158015610fa657600080fd5b505af1158015610fba573d6000803e3d6000fd5b505050506040513d601f19601f82011682018060405250810190610abd9190611a91565b6001600160a01b03918216600090815260016020908152604080832093909416825291909152205490565b6110116112ce565b6001600160a01b0381166110765760405162461bcd60e51b815260206004820152602660248201527f4f776e61626c653a206e6577206f776e657220697320746865207a65726f206160448201526564647265737360d01b6064820152608401610b59565b61066c81611546565b6001600160a01b0382166110df5760405162461bcd60e51b815260206004820152602160248201527f45524332303a206275726e2066726f6d20746865207a65726f206164647265736044820152607360f81b6064820152608401610b59565b6001600160a01b038216600090815260208190526040902054818110156111535760405162461bcd60e51b815260206004820152602260248201527f45524332303a206275726e20616d6f756e7420657863656564732062616c616e604482015261636560f01b6064820152608401610b59565b6001600160a01b0383166000818152602081815260408083208686039055600280548790039055518581529192917fddf252ad1be2c89b69c2b068fc378daa952ba7f163c4a11628f55a4df523b3ef91015b60405180910390a3505050565b6001600160a01b0383166112145760405162461bcd60e51b8152602060048201526024808201527f45524332303a20617070726f76652066726f6d20746865207a65726f206164646044820152637265737360e01b6064820152608401610b59565b6001600160a01b0382166112755760405162461bcd60e51b815260206004820152602260248201527f45524332303a20617070726f766520746f20746865207a65726f206164647265604482015261737360f01b6064820152608401610b59565b6001600160a01b0383811660008181526001602090815260408083209487168084529482529182902085905590518481527f8c5be1e5ebec7d5bd14f71427d1e84f3dd0314c0f7b2291e5b200ac8c7c3b92591016111a5565b6005546001600160a01b03163314610a125760405162461bcd60e51b815260206004820181905260248201527f4f776e61626c653a2063616c6c6572206973206e6f7420746865206f776e65726044820152606401610b59565b60006113348484610fde565b9050600019811461139c578181101561138f5760405162461bcd60e51b815260206004820152601d60248201527f45524332303a20696e73756666696369656e7420616c6c6f77616e63650000006044820152606401610b59565b61139c84848484036111b2565b50505050565b6001600160a01b0383166114065760405162461bcd60e51b815260206004820152602560248201527f45524332303a207472616e736665722066726f6d20746865207a65726f206164604482015264647265737360d81b6064820152608401610b59565b6001600160a01b0382166114685760405162461bcd60e51b815260206004820152602360248201527f45524332303a207472616e7366657220746f20746865207a65726f206164647260448201526265737360e81b6064820152608401610b59565b6001600160a01b038316600090815260208190526040902054818110156114e05760405162461bcd60e51b815260206004820152602660248201527f45524332303a207472616e7366657220616d6f756e7420657863656564732062604482015265616c616e636560d01b6064820152608401610b59565b6001600160a01b03848116600081815260208181526040808320878703905593871680835291849020805487019055925185815290927fddf252ad1be2c89b69c2b068fc378daa952ba7f163c4a11628f55a4df523b3ef910160405180910390a361139c565b600580546001600160a01b038381166001600160a01b0319831681179093556040519116919082907f8be0079c531659141344cd1fd0a4f28419497f9722a3daafe3b4186f6b6457e090600090a35050565b600854600554604080516001600160a01b038881166020830152818301879052878116606083015260808083018790528351808403909101815260a08301938490526358cd21bf60e11b909352600094169263b19a437e9261160e92600160a01b90920463ffffffff169160c89060a401611f97565b602060405180830381600087803b15801561162857600080fd5b505af115801561163c573d6000803e3d6000fd5b505050506040513d601f19601f820116820180604052508101906116609190611fc9565b60055490915061167e90600160a01b900463ffffffff166001611fe4565b600560146101000a81548163ffffffff021916908363ffffffff160217905550949350505050565b6001600160a01b0382166116fc5760405162461bcd60e51b815260206004820152601f60248201527f45524332303a206d696e7420746f20746865207a65726f2061646472657373006044820152606401610b59565b806002600082825461170e9190611b4b565b90915550506001600160a01b038216600081815260208181526040808320805486019055518481527fddf252ad1be2c89b69c2b068fc378daa952ba7f163c4a11628f55a4df523b3ef910160405180910390a35050565b60005b83811015611780578181015183820152602001611768565b8381111561139c5750506000910152565b600081518084526117a9816020860160208601611765565b601f01601f19169290920160200192915050565b6020815260006108496020830184611791565b6000602082840312156117e257600080fd5b5035919050565b6001600160a01b038116811461066c57600080fd5b6000806040838503121561181157600080fd5b823561181c816117e9565b946020939093013593505050565b803562ffffff8116811461183d57600080fd5b919050565b60006020828403121561185457600080fd5b6108498261182a565b600080600080600060a0868803121561187557600080fd5b8535611880816117e9565b94506020860135611890816117e9565b935061189e6040870161182a565b92506060860135915060808601356118b5816117e9565b809150509295509295909350565b6000806000606084860312156118d857600080fd5b83356118e3816117e9565b925060208401356118f3816117e9565b929592945050506040919091013590565b60008060006040848603121561191957600080fd5b833567ffffffffffffffff8082111561193157600080fd5b818601915086601f83011261194557600080fd5b81358181111561195457600080fd5b87602082850101111561196657600080fd5b60209283019550935061197c918601905061182a565b90509250925092565b60006020828403121561199757600080fd5b8135610849816117e9565b600080600080608085870312156119b857600080fd5b84356119c3816117e9565b935060208501356119d3816117e9565b92506119e16040860161182a565b9396929550929360600135925050565b600080600060608486031215611a0657600080fd5b505081359360208301359350604090920135919050565b60008060408385031215611a3057600080fd5b8235611a3b816117e9565b91506020830135611a4b816117e9565b809150509250929050565b600181811c90821680611a6a57607f821691505b60208210811415611a8b57634e487b7160e01b600052602260045260246000fd5b50919050565b600060208284031215611aa357600080fd5b5051919050565b600060208284031215611abc57600080fd5b8151801515811461084957600080fd5b81516001600160a01b03908116825260208084015182169083015260408084015162ffffff16908301526060808401518216908301526080808401519083015260a0838101519083015260c0808401519083015260e09283015116918101919091526101000190565b634e487b7160e01b600052601160045260246000fd5b60008219821115611b5e57611b5e611b35565b500190565b60208152816020820152818360408301376000818301604090810191909152601f909201601f19160101919050565b634e487b7160e01b600052604160045260246000fd5b6040516080810167ffffffffffffffff81118282101715611bcb57611bcb611b92565b60405290565b604051610160810167ffffffffffffffff81118282101715611bcb57611bcb611b92565b604051601f8201601f1916810167ffffffffffffffff81118282101715611c1e57611c1e611b92565b604052919050565b805160ff8116811461183d57600080fd5b805163ffffffff8116811461183d57600080fd5b805161ffff8116811461183d57600080fd5b805167ffffffffffffffff8116811461183d57600080fd5b600082601f830112611c8657600080fd5b815167ffffffffffffffff811115611ca057611ca0611b92565b611cb3601f8201601f1916602001611bf5565b818152846020838601011115611cc857600080fd5b611cd9826020830160208701611765565b949350505050565b600082601f830112611cf257600080fd5b8151602067ffffffffffffffff821115611d0e57611d0e611b92565b611d1c818360051b01611bf5565b82815260079290921b84018101918181019086841115611d3b57600080fd5b8286015b84811015611d9c5760808189031215611d585760008081fd5b611d60611ba8565b8151815284820151858201526040611d79818401611c26565b908201526060611d8a838201611c26565b90820152835291830191608001611d3f565b509695505050505050565b600060208284031215611db957600080fd5b815167ffffffffffffffff80821115611dd157600080fd5b908301906101608286031215611de657600080fd5b611dee611bd1565b611df783611c26565b8152611e0560208401611c37565b6020820152611e1660408401611c37565b6040820152611e2760608401611c4b565b606082015260808301516080820152611e4260a08401611c5d565b60a0820152611e5360c08401611c26565b60c082015260e083015182811115611e6a57600080fd5b611e7687828601611c75565b60e083015250610100611e8a818501611c37565b908201526101208381015183811115611ea257600080fd5b611eae88828701611ce1565b91830191909152506101409283015192810192909252509392505050565b60008060008060808587031215611ee257600080fd5b8451611eed816117e9565b602086015160408701519195509350611f05816117e9565b6060959095015193969295505050565b6000816000190483118215151615611f2f57611f2f611b35565b500290565b634e487b7160e01b600052601260045260246000fd5b600082611f5957611f59611f34565b500490565b600062ffffff80841680611f7457611f74611f34565b92169190910492915050565b600082821015611f9257611f92611b35565b500390565b63ffffffff84168152606060208201526000611fb66060830185611791565b905060ff83166040830152949350505050565b600060208284031215611fdb57600080fd5b61084982611c5d565b600063ffffffff80831681851680830382111561200357612003611b35565b0194935050505056fea264697066735822122016789fd435a3d7c0930e75c7b06d0147f9f821c8b507d41f59348b4c76cc9c3064736f6c63430008090033",
  "linkReferences": {},
  "deployedLinkReferences": {}
}